{
  "_format": "hh-sol-artifact-1",
  "contractName": "NFTGenerator",
  "sourceName": "contracts/NFTGenerator.sol",
  "abi": [
    {
      "inputs": [],
      "stateMutability": "nonpayable",
      "type": "constructor"
    },
    {
      "inputs": [
        {
          "internalType": "address",
          "name": "sender",
          "type": "address"
        },
        {
          "internalType": "uint256",
          "name": "tokenId",
          "type": "uint256"
        },
        {
          "internalType": "address",
          "name": "owner",
          "type": "address"
        }
      ],
      "name": "ERC721IncorrectOwner",
      "type": "error"
    },
    {
      "inputs": [
        {
          "internalType": "address",
          "name": "operator",
          "type": "address"
        },
        {
          "internalType": "uint256",
          "name": "tokenId",
          "type": "uint256"
        }
      ],
      "name": "ERC721InsufficientApproval",
      "type": "error"
    },
    {
      "inputs": [
        {
          "internalType": "address",
          "name": "approver",
          "type": "address"
        }
      ],
      "name": "ERC721InvalidApprover",
      "type": "error"
    },
    {
      "inputs": [
        {
          "internalType": "address",
          "name": "operator",
          "type": "address"
        }
      ],
      "name": "ERC721InvalidOperator",
      "type": "error"
    },
    {
      "inputs": [
        {
          "internalType": "address",
          "name": "owner",
          "type": "address"
        }
      ],
      "name": "ERC721InvalidOwner",
      "type": "error"
    },
    {
      "inputs": [
        {
          "internalType": "address",
          "name": "receiver",
          "type": "address"
        }
      ],
      "name": "ERC721InvalidReceiver",
      "type": "error"
    },
    {
      "inputs": [
        {
          "internalType": "address",
          "name": "sender",
          "type": "address"
        }
      ],
      "name": "ERC721InvalidSender",
      "type": "error"
    },
    {
      "inputs": [
        {
          "internalType": "uint256",
          "name": "tokenId",
          "type": "uint256"
        }
      ],
      "name": "ERC721NonexistentToken",
      "type": "error"
    },
    {
      "inputs": [
        {
          "internalType": "address",
          "name": "owner",
          "type": "address"
        }
      ],
      "name": "OwnableInvalidOwner",
      "type": "error"
    },
    {
      "inputs": [
        {
          "internalType": "address",
          "name": "account",
          "type": "address"
        }
      ],
      "name": "OwnableUnauthorizedAccount",
      "type": "error"
    },
    {
      "anonymous": false,
      "inputs": [
        {
          "indexed": true,
          "internalType": "address",
          "name": "owner",
          "type": "address"
        },
        {
          "indexed": true,
          "internalType": "address",
          "name": "approved",
          "type": "address"
        },
        {
          "indexed": true,
          "internalType": "uint256",
          "name": "tokenId",
          "type": "uint256"
        }
      ],
      "name": "Approval",
      "type": "event"
    },
    {
      "anonymous": false,
      "inputs": [
        {
          "indexed": true,
          "internalType": "address",
          "name": "owner",
          "type": "address"
        },
        {
          "indexed": true,
          "internalType": "address",
          "name": "operator",
          "type": "address"
        },
        {
          "indexed": false,
          "internalType": "bool",
          "name": "approved",
          "type": "bool"
        }
      ],
      "name": "ApprovalForAll",
      "type": "event"
    },
    {
      "anonymous": false,
      "inputs": [
        {
          "indexed": false,
          "internalType": "uint256",
          "name": "_fromTokenId",
          "type": "uint256"
        },
        {
          "indexed": false,
          "internalType": "uint256",
          "name": "_toTokenId",
          "type": "uint256"
        }
      ],
      "name": "BatchMetadataUpdate",
      "type": "event"
    },
    {
      "anonymous": false,
      "inputs": [
        {
          "indexed": false,
          "internalType": "uint256",
          "name": "_tokenId",
          "type": "uint256"
        }
      ],
      "name": "MetadataUpdate",
      "type": "event"
    },
    {
      "anonymous": false,
      "inputs": [
        {
          "indexed": true,
          "internalType": "address",
          "name": "previousOwner",
          "type": "address"
        },
        {
          "indexed": true,
          "internalType": "address",
          "name": "newOwner",
          "type": "address"
        }
      ],
      "name": "OwnershipTransferred",
      "type": "event"
    },
    {
      "anonymous": false,
      "inputs": [
        {
          "indexed": true,
          "internalType": "address",
          "name": "from",
          "type": "address"
        },
        {
          "indexed": true,
          "internalType": "address",
          "name": "to",
          "type": "address"
        },
        {
          "indexed": true,
          "internalType": "uint256",
          "name": "tokenId",
          "type": "uint256"
        }
      ],
      "name": "Transfer",
      "type": "event"
    },
    {
      "inputs": [
        {
          "internalType": "address",
          "name": "to",
          "type": "address"
        },
        {
          "internalType": "uint256",
          "name": "tokenId",
          "type": "uint256"
        }
      ],
      "name": "approve",
      "outputs": [],
      "stateMutability": "nonpayable",
      "type": "function"
    },
    {
      "inputs": [
        {
          "internalType": "address",
          "name": "owner",
          "type": "address"
        }
      ],
      "name": "balanceOf",
      "outputs": [
        {
          "internalType": "uint256",
          "name": "",
          "type": "uint256"
        }
      ],
      "stateMutability": "view",
      "type": "function"
    },
    {
      "inputs": [
        {
          "internalType": "uint256",
          "name": "tokenId",
          "type": "uint256"
        }
      ],
      "name": "getApproved",
      "outputs": [
        {
          "internalType": "address",
          "name": "",
          "type": "address"
        }
      ],
      "stateMutability": "view",
      "type": "function"
    },
    {
      "inputs": [
        {
          "internalType": "address",
          "name": "owner",
          "type": "address"
        },
        {
          "internalType": "address",
          "name": "operator",
          "type": "address"
        }
      ],
      "name": "isApprovedForAll",
      "outputs": [
        {
          "internalType": "bool",
          "name": "",
          "type": "bool"
        }
      ],
      "stateMutability": "view",
      "type": "function"
    },
    {
      "inputs": [
        {
          "internalType": "address",
          "name": "recipient",
          "type": "address"
        },
        {
          "internalType": "string",
          "name": "tokenURI",
          "type": "string"
        }
      ],
      "name": "mintNFT",
      "outputs": [
        {
          "internalType": "uint256",
          "name": "",
          "type": "uint256"
        }
      ],
      "stateMutability": "payable",
      "type": "function"
    },
    {
      "inputs": [],
      "name": "mintPrice",
      "outputs": [
        {
          "internalType": "uint256",
          "name": "",
          "type": "uint256"
        }
      ],
      "stateMutability": "view",
      "type": "function"
    },
    {
      "inputs": [],
      "name": "name",
      "outputs": [
        {
          "internalType": "string",
          "name": "",
          "type": "string"
        }
      ],
      "stateMutability": "view",
      "type": "function"
    },
    {
      "inputs": [],
      "name": "owner",
      "outputs": [
        {
          "internalType": "address",
          "name": "",
          "type": "address"
        }
      ],
      "stateMutability": "view",
      "type": "function"
    },
    {
      "inputs": [
        {
          "internalType": "uint256",
          "name": "tokenId",
          "type": "uint256"
        }
      ],
      "name": "ownerOf",
      "outputs": [
        {
          "internalType": "address",
          "name": "",
          "type": "address"
        }
      ],
      "stateMutability": "view",
      "type": "function"
    },
    {
      "inputs": [],
      "name": "renounceOwnership",
      "outputs": [],
      "stateMutability": "nonpayable",
      "type": "function"
    },
    {
      "inputs": [
        {
          "internalType": "address",
          "name": "from",
          "type": "address"
        },
        {
          "internalType": "address",
          "name": "to",
          "type": "address"
        },
        {
          "internalType": "uint256",
          "name": "tokenId",
          "type": "uint256"
        }
      ],
      "name": "safeTransferFrom",
      "outputs": [],
      "stateMutability": "nonpayable",
      "type": "function"
    },
    {
      "inputs": [
        {
          "internalType": "address",
          "name": "from",
          "type": "address"
        },
        {
          "internalType": "address",
          "name": "to",
          "type": "address"
        },
        {
          "internalType": "uint256",
          "name": "tokenId",
          "type": "uint256"
        },
        {
          "internalType": "bytes",
          "name": "data",
          "type": "bytes"
        }
      ],
      "name": "safeTransferFrom",
      "outputs": [],
      "stateMutability": "nonpayable",
      "type": "function"
    },
    {
      "inputs": [
        {
          "internalType": "address",
          "name": "operator",
          "type": "address"
        },
        {
          "internalType": "bool",
          "name": "approved",
          "type": "bool"
        }
      ],
      "name": "setApprovalForAll",
      "outputs": [],
      "stateMutability": "nonpayable",
      "type": "function"
    },
    {
      "inputs": [
        {
          "internalType": "uint256",
          "name": "_price",
          "type": "uint256"
        }
      ],
      "name": "setMintPrice",
      "outputs": [],
      "stateMutability": "nonpayable",
      "type": "function"
    },
    {
      "inputs": [
        {
          "internalType": "bytes4",
          "name": "interfaceId",
          "type": "bytes4"
        }
      ],
      "name": "supportsInterface",
      "outputs": [
        {
          "internalType": "bool",
          "name": "",
          "type": "bool"
        }
      ],
      "stateMutability": "view",
      "type": "function"
    },
    {
      "inputs": [],
      "name": "symbol",
      "outputs": [
        {
          "internalType": "string",
          "name": "",
          "type": "string"
        }
      ],
      "stateMutability": "view",
      "type": "function"
    },
    {
      "inputs": [
        {
          "internalType": "uint256",
          "name": "tokenId",
          "type": "uint256"
        }
      ],
      "name": "tokenURI",
      "outputs": [
        {
          "internalType": "string",
          "name": "",
          "type": "string"
        }
      ],
      "stateMutability": "view",
      "type": "function"
    },
    {
      "inputs": [
        {
          "internalType": "address",
          "name": "from",
          "type": "address"
        },
        {
          "internalType": "address",
          "name": "to",
          "type": "address"
        },
        {
          "internalType": "uint256",
          "name": "tokenId",
          "type": "uint256"
        }
      ],
      "name": "transferFrom",
      "outputs": [],
      "stateMutability": "nonpayable",
      "type": "function"
    },
    {
      "inputs": [
        {
          "internalType": "address",
          "name": "newOwner",
          "type": "address"
        }
      ],
      "name": "transferOwnership",
      "outputs": [],
      "stateMutability": "nonpayable",
      "type": "function"
    },
    {
      "inputs": [],
      "name": "withdraw",
      "outputs": [],
      "stateMutability": "nonpayable",
      "type": "function"
    }
  ],
  "bytecode": "0x608060405266038d7ea4c6800060095534801561001b57600080fd5b50336040518060400160405280601081526020016f10524811d95b995c985d19590813919560821b81525060405180604001604052806005815260200164105253919560da1b815250816000908161007391906101b1565b50600161008082826101b1565b5050506001600160a01b0381166100b157604051631e4fbdf760e01b81526000600482015260240160405180910390fd5b6100ba816100c0565b5061026f565b600780546001600160a01b038381166001600160a01b0319831681179093556040519116919082907f8be0079c531659141344cd1fd0a4f28419497f9722a3daafe3b4186f6b6457e090600090a35050565b634e487b7160e01b600052604160045260246000fd5b600181811c9082168061013c57607f821691505b60208210810361015c57634e487b7160e01b600052602260045260246000fd5b50919050565b601f8211156101ac57806000526020600020601f840160051c810160208510156101895750805b601f840160051c820191505b818110156101a95760008155600101610195565b50505b505050565b81516001600160401b038111156101ca576101ca610112565b6101de816101d88454610128565b84610162565b6020601f82116001811461021257600083156101fa5750848201515b600019600385901b1c1916600184901b1784556101a9565b600084815260208120601f198516915b828110156102425787850151825560209485019460019092019101610222565b50848210156102605786840151600019600387901b60f8161c191681555b50505050600190811b01905550565b6115cb8061027e6000396000f3fe60806040526004361061011f5760003560e01c8063715018a6116100a0578063c87b56dd11610064578063c87b56dd14610316578063e985e9c514610336578063eacabe1414610356578063f2fde38b14610369578063f4a0a5281461038957600080fd5b8063715018a61461028e5780638da5cb5b146102a357806395d89b41146102c1578063a22cb465146102d6578063b88d4fde146102f657600080fd5b80633ccfd60b116100e75780633ccfd60b146101f557806342842e0e1461020a5780636352211e1461022a5780636817c76c1461024a57806370a082311461026e57600080fd5b806301ffc9a71461012457806306fdde0314610159578063081812fc1461017b578063095ea7b3146101b357806323b872dd146101d5575b600080fd5b34801561013057600080fd5b5061014461013f366004611091565b6103a9565b60405190151581526020015b60405180910390f35b34801561016557600080fd5b5061016e6103d4565b60405161015091906110fe565b34801561018757600080fd5b5061019b610196366004611111565b610466565b6040516001600160a01b039091168152602001610150565b3480156101bf57600080fd5b506101d36101ce366004611146565b61048f565b005b3480156101e157600080fd5b506101d36101f0366004611170565b61049e565b34801561020157600080fd5b506101d361052e565b34801561021657600080fd5b506101d3610225366004611170565b610581565b34801561023657600080fd5b5061019b610245366004611111565b6105a1565b34801561025657600080fd5b5061026060095481565b604051908152602001610150565b34801561027a57600080fd5b506102606102893660046111ad565b6105ac565b34801561029a57600080fd5b506101d36105f4565b3480156102af57600080fd5b506007546001600160a01b031661019b565b3480156102cd57600080fd5b5061016e610608565b3480156102e257600080fd5b506101d36102f13660046111c8565b610617565b34801561030257600080fd5b506101d3610311366004611294565b610622565b34801561032257600080fd5b5061016e610331366004611111565b61063a565b34801561034257600080fd5b50610144610351366004611310565b61074b565b610260610364366004611343565b610779565b34801561037557600080fd5b506101d36103843660046111ad565b6107f7565b34801561039557600080fd5b506101d36103a4366004611111565b610835565b60006001600160e01b03198216632483248360e11b14806103ce57506103ce82610842565b92915050565b6060600080546103e3906113a5565b80601f016020809104026020016040519081016040528092919081815260200182805461040f906113a5565b801561045c5780601f106104315761010080835404028352916020019161045c565b820191906000526020600020905b81548152906001019060200180831161043f57829003601f168201915b5050505050905090565b600061047182610892565b506000828152600460205260409020546001600160a01b03166103ce565b61049a8282336108cb565b5050565b6001600160a01b0382166104cd57604051633250574960e11b8152600060048201526024015b60405180910390fd5b60006104da8383336108d8565b9050836001600160a01b0316816001600160a01b031614610528576040516364283d7b60e01b81526001600160a01b03808616600483015260248201849052821660448201526064016104c4565b50505050565b6105366109d1565b476105496007546001600160a01b031690565b6001600160a01b03166108fc829081150290604051600060405180830381858888f1935050505015801561049a573d6000803e3d6000fd5b61059c83838360405180602001604052806000815250610622565b505050565b60006103ce82610892565b60006001600160a01b0382166105d8576040516322718ad960e21b8152600060048201526024016104c4565b506001600160a01b031660009081526003602052604090205490565b6105fc6109d1565b61060660006109fe565b565b6060600180546103e3906113a5565b61049a338383610a50565b61062d84848461049e565b6105283385858585610aef565b606061064582610892565b506000828152600660205260408120805461065f906113a5565b80601f016020809104026020016040519081016040528092919081815260200182805461068b906113a5565b80156106d85780601f106106ad576101008083540402835291602001916106d8565b820191906000526020600020905b8154815290600101906020018083116106bb57829003601f168201915b5050505050905060006106f660408051602081019091526000815290565b90508051600003610708575092915050565b81511561073a5780826040516020016107229291906113df565b60405160208183030381529060405292505050919050565b61074384610c1a565b949350505050565b6001600160a01b03918216600090815260056020908152604080832093909416825291909152205460ff1690565b60006009543410156107c45760405162461bcd60e51b8152602060048201526014602482015273125b9cdd59999a58da595b9d081c185e5b595b9d60621b60448201526064016104c4565b600880549060006107d48361140e565b90915550506008546107e68482610c8e565b6107f08184610cf3565b9392505050565b6107ff6109d1565b6001600160a01b03811661082957604051631e4fbdf760e01b8152600060048201526024016104c4565b610832816109fe565b50565b61083d6109d1565b600955565b60006001600160e01b031982166380ac58cd60e01b148061087357506001600160e01b03198216635b5e139f60e01b145b806103ce57506301ffc9a760e01b6001600160e01b03198316146103ce565b6000818152600260205260408120546001600160a01b0316806103ce57604051637e27328960e01b8152600481018490526024016104c4565b61059c8383836001610d43565b6000828152600260205260408120546001600160a01b039081169083161561090557610905818486610e49565b6001600160a01b0381161561094357610922600085600080610d43565b6001600160a01b038116600090815260036020526040902080546000190190555b6001600160a01b03851615610972576001600160a01b0385166000908152600360205260409020805460010190555b60008481526002602052604080822080546001600160a01b0319166001600160a01b0389811691821790925591518793918516917fddf252ad1be2c89b69c2b068fc378daa952ba7f163c4a11628f55a4df523b3ef91a4949350505050565b6007546001600160a01b031633146106065760405163118cdaa760e01b81523360048201526024016104c4565b600780546001600160a01b038381166001600160a01b0319831681179093556040519116919082907f8be0079c531659141344cd1fd0a4f28419497f9722a3daafe3b4186f6b6457e090600090a35050565b6001600160a01b038216610a8257604051630b61174360e31b81526001600160a01b03831660048201526024016104c4565b6001600160a01b03838116600081815260056020908152604080832094871680845294825291829020805460ff191686151590811790915591519182527f17307eab39ab6107e8899845ad3d59bd9653f200f220920489ca2b5937696c31910160405180910390a3505050565b6001600160a01b0383163b15610c1357604051630a85bd0160e11b81526001600160a01b0384169063150b7a0290610b31908890889087908790600401611435565b6020604051808303816000875af1925050508015610b6c575060408051601f3d908101601f19168201909252610b6991810190611472565b60015b610bd5573d808015610b9a576040519150601f19603f3d011682016040523d82523d6000602084013e610b9f565b606091505b508051600003610bcd57604051633250574960e11b81526001600160a01b03851660048201526024016104c4565b805181602001fd5b6001600160e01b03198116630a85bd0160e11b14610c1157604051633250574960e11b81526001600160a01b03851660048201526024016104c4565b505b5050505050565b6060610c2582610892565b506000610c3d60408051602081019091526000815290565b90506000815111610c5d57604051806020016040528060008152506107f0565b80610c6784610ead565b604051602001610c789291906113df565b6040516020818303038152906040529392505050565b6001600160a01b038216610cb857604051633250574960e11b8152600060048201526024016104c4565b6000610cc6838360006108d8565b90506001600160a01b0381161561059c576040516339e3563760e11b8152600060048201526024016104c4565b6000828152600660205260409020610d0b82826114d6565b506040518281527ff8e1a15aba9398e019f0b49df1a4fde98ee17ae345cb5f6b5e2c27f5033e8ce79060200160405180910390a15050565b8080610d5757506001600160a01b03821615155b15610e19576000610d6784610892565b90506001600160a01b03831615801590610d935750826001600160a01b0316816001600160a01b031614155b8015610da65750610da4818461074b565b155b15610dcf5760405163a9fbf51f60e01b81526001600160a01b03841660048201526024016104c4565b8115610e175783856001600160a01b0316826001600160a01b03167f8c5be1e5ebec7d5bd14f71427d1e84f3dd0314c0f7b2291e5b200ac8c7c3b92560405160405180910390a45b505b5050600090815260046020526040902080546001600160a01b0319166001600160a01b0392909216919091179055565b610e54838383610f40565b61059c576001600160a01b038316610e8257604051637e27328960e01b8152600481018290526024016104c4565b60405163177e802f60e01b81526001600160a01b0383166004820152602481018290526044016104c4565b60606000610eba83610fa3565b600101905060008167ffffffffffffffff811115610eda57610eda611204565b6040519080825280601f01601f191660200182016040528015610f04576020820181803683370190505b5090508181016020015b600019016f181899199a1a9b1b9c1cb0b131b232b360811b600a86061a8153600a8504945084610f0e57509392505050565b60006001600160a01b038316158015906107435750826001600160a01b0316846001600160a01b03161480610f7a5750610f7a848461074b565b806107435750506000908152600460205260409020546001600160a01b03908116911614919050565b60008072184f03e93ff9f4daa797ed6e38ed64bf6a1f0160401b8310610fe25772184f03e93ff9f4daa797ed6e38ed64bf6a1f0160401b830492506040015b6d04ee2d6d415b85acef8100000000831061100e576d04ee2d6d415b85acef8100000000830492506020015b662386f26fc10000831061102c57662386f26fc10000830492506010015b6305f5e1008310611044576305f5e100830492506008015b612710831061105857612710830492506004015b6064831061106a576064830492506002015b600a83106103ce5760010192915050565b6001600160e01b03198116811461083257600080fd5b6000602082840312156110a357600080fd5b81356107f08161107b565b60005b838110156110c95781810151838201526020016110b1565b50506000910152565b600081518084526110ea8160208601602086016110ae565b601f01601f19169290920160200192915050565b6020815260006107f060208301846110d2565b60006020828403121561112357600080fd5b5035919050565b80356001600160a01b038116811461114157600080fd5b919050565b6000806040838503121561115957600080fd5b6111628361112a565b946020939093013593505050565b60008060006060848603121561118557600080fd5b61118e8461112a565b925061119c6020850161112a565b929592945050506040919091013590565b6000602082840312156111bf57600080fd5b6107f08261112a565b600080604083850312156111db57600080fd5b6111e48361112a565b9150602083013580151581146111f957600080fd5b809150509250929050565b634e487b7160e01b600052604160045260246000fd5b60008067ffffffffffffffff84111561123557611235611204565b50604051601f19601f85018116603f0116810181811067ffffffffffffffff8211171561126457611264611204565b60405283815290508082840185101561127c57600080fd5b83836020830137600060208583010152509392505050565b600080600080608085870312156112aa57600080fd5b6112b38561112a565b93506112c16020860161112a565b925060408501359150606085013567ffffffffffffffff8111156112e457600080fd5b8501601f810187136112f557600080fd5b6113048782356020840161121a565b91505092959194509250565b6000806040838503121561132357600080fd5b61132c8361112a565b915061133a6020840161112a565b90509250929050565b6000806040838503121561135657600080fd5b61135f8361112a565b9150602083013567ffffffffffffffff81111561137b57600080fd5b8301601f8101851361138c57600080fd5b61139b8582356020840161121a565b9150509250929050565b600181811c908216806113b957607f821691505b6020821081036113d957634e487b7160e01b600052602260045260246000fd5b50919050565b600083516113f18184602088016110ae565b8351908301906114058183602088016110ae565b01949350505050565b60006001820161142e57634e487b7160e01b600052601160045260246000fd5b5060010190565b6001600160a01b0385811682528416602082015260408101839052608060608201819052600090611468908301846110d2565b9695505050505050565b60006020828403121561148457600080fd5b81516107f08161107b565b601f82111561059c57806000526020600020601f840160051c810160208510156114b65750805b601f840160051c820191505b81811015610c1357600081556001016114c2565b815167ffffffffffffffff8111156114f0576114f0611204565b611504816114fe84546113a5565b8461148f565b6020601f82116001811461153857600083156115205750848201515b600019600385901b1c1916600184901b178455610c13565b600084815260208120601f198516915b828110156115685787850151825560209485019460019092019101611548565b50848210156115865786840151600019600387901b60f8161c191681555b50505050600190811b0190555056fea26469706673582212203b7a6b814c8f178f8b85779ff959ce87ba224e6c99dfa387b26101430f84dfd364736f6c634300081b0033",
  "linkReferences": {},
  "deployedLinkReferences": {}
}